{
  "contractName": "Land",
  "abi": [
    {
      "inputs": [
        {
          "internalType": "string",
          "name": "_name",
          "type": "string"
        },
        {
          "internalType": "string",
          "name": "_symbol",
          "type": "string"
        },
        {
          "internalType": "uint256",
          "name": "_cost",
          "type": "uint256"
        }
      ],
      "stateMutability": "nonpayable",
      "type": "constructor"
    },
    {
      "anonymous": false,
      "inputs": [
        {
          "indexed": true,
          "internalType": "address",
          "name": "owner",
          "type": "address"
        },
        {
          "indexed": true,
          "internalType": "address",
          "name": "approved",
          "type": "address"
        },
        {
          "indexed": true,
          "internalType": "uint256",
          "name": "tokenId",
          "type": "uint256"
        }
      ],
      "name": "Approval",
      "type": "event"
    },
    {
      "anonymous": false,
      "inputs": [
        {
          "indexed": true,
          "internalType": "address",
          "name": "owner",
          "type": "address"
        },
        {
          "indexed": true,
          "internalType": "address",
          "name": "operator",
          "type": "address"
        },
        {
          "indexed": false,
          "internalType": "bool",
          "name": "approved",
          "type": "bool"
        }
      ],
      "name": "ApprovalForAll",
      "type": "event"
    },
    {
      "anonymous": false,
      "inputs": [
        {
          "indexed": true,
          "internalType": "address",
          "name": "from",
          "type": "address"
        },
        {
          "indexed": true,
          "internalType": "address",
          "name": "to",
          "type": "address"
        },
        {
          "indexed": true,
          "internalType": "uint256",
          "name": "tokenId",
          "type": "uint256"
        }
      ],
      "name": "Transfer",
      "type": "event"
    },
    {
      "inputs": [
        {
          "internalType": "address",
          "name": "to",
          "type": "address"
        },
        {
          "internalType": "uint256",
          "name": "tokenId",
          "type": "uint256"
        }
      ],
      "name": "approve",
      "outputs": [],
      "stateMutability": "nonpayable",
      "type": "function"
    },
    {
      "inputs": [
        {
          "internalType": "address",
          "name": "owner",
          "type": "address"
        }
      ],
      "name": "balanceOf",
      "outputs": [
        {
          "internalType": "uint256",
          "name": "",
          "type": "uint256"
        }
      ],
      "stateMutability": "view",
      "type": "function",
      "constant": true
    },
    {
      "inputs": [
        {
          "internalType": "uint256",
          "name": "",
          "type": "uint256"
        }
      ],
      "name": "buildings",
      "outputs": [
        {
          "internalType": "string",
          "name": "name",
          "type": "string"
        },
        {
          "internalType": "address",
          "name": "owner",
          "type": "address"
        },
        {
          "internalType": "int256",
          "name": "posX",
          "type": "int256"
        },
        {
          "internalType": "int256",
          "name": "posY",
          "type": "int256"
        },
        {
          "internalType": "int256",
          "name": "posZ",
          "type": "int256"
        },
        {
          "internalType": "uint256",
          "name": "sizeX",
          "type": "uint256"
        },
        {
          "internalType": "uint256",
          "name": "sizeY",
          "type": "uint256"
        },
        {
          "internalType": "uint256",
          "name": "sizeZ",
          "type": "uint256"
        },
        {
          "internalType": "bool",
          "name": "isForSale",
          "type": "bool"
        }
      ],
      "stateMutability": "view",
      "type": "function",
      "constant": true
    },
    {
      "inputs": [],
      "name": "cost",
      "outputs": [
        {
          "internalType": "uint256",
          "name": "",
          "type": "uint256"
        }
      ],
      "stateMutability": "view",
      "type": "function",
      "constant": true
    },
    {
      "inputs": [
        {
          "internalType": "uint256",
          "name": "tokenId",
          "type": "uint256"
        }
      ],
      "name": "getApproved",
      "outputs": [
        {
          "internalType": "address",
          "name": "",
          "type": "address"
        }
      ],
      "stateMutability": "view",
      "type": "function",
      "constant": true
    },
    {
      "inputs": [
        {
          "internalType": "address",
          "name": "owner",
          "type": "address"
        },
        {
          "internalType": "address",
          "name": "operator",
          "type": "address"
        }
      ],
      "name": "isApprovedForAll",
      "outputs": [
        {
          "internalType": "bool",
          "name": "",
          "type": "bool"
        }
      ],
      "stateMutability": "view",
      "type": "function",
      "constant": true
    },
    {
      "inputs": [],
      "name": "maxSupply",
      "outputs": [
        {
          "internalType": "uint256",
          "name": "",
          "type": "uint256"
        }
      ],
      "stateMutability": "view",
      "type": "function",
      "constant": true
    },
    {
      "inputs": [],
      "name": "name",
      "outputs": [
        {
          "internalType": "string",
          "name": "",
          "type": "string"
        }
      ],
      "stateMutability": "view",
      "type": "function",
      "constant": true
    },
    {
      "inputs": [
        {
          "internalType": "uint256",
          "name": "tokenId",
          "type": "uint256"
        }
      ],
      "name": "ownerOf",
      "outputs": [
        {
          "internalType": "address",
          "name": "",
          "type": "address"
        }
      ],
      "stateMutability": "view",
      "type": "function",
      "constant": true
    },
    {
      "inputs": [
        {
          "internalType": "address",
          "name": "operator",
          "type": "address"
        },
        {
          "internalType": "bool",
          "name": "approved",
          "type": "bool"
        }
      ],
      "name": "setApprovalForAll",
      "outputs": [],
      "stateMutability": "nonpayable",
      "type": "function"
    },
    {
      "inputs": [
        {
          "internalType": "bytes4",
          "name": "interfaceId",
          "type": "bytes4"
        }
      ],
      "name": "supportsInterface",
      "outputs": [
        {
          "internalType": "bool",
          "name": "",
          "type": "bool"
        }
      ],
      "stateMutability": "view",
      "type": "function",
      "constant": true
    },
    {
      "inputs": [],
      "name": "symbol",
      "outputs": [
        {
          "internalType": "string",
          "name": "",
          "type": "string"
        }
      ],
      "stateMutability": "view",
      "type": "function",
      "constant": true
    },
    {
      "inputs": [],
      "name": "tokenId",
      "outputs": [
        {
          "internalType": "uint256",
          "name": "",
          "type": "uint256"
        }
      ],
      "stateMutability": "view",
      "type": "function",
      "constant": true
    },
    {
      "inputs": [
        {
          "internalType": "uint256",
          "name": "tokenId",
          "type": "uint256"
        }
      ],
      "name": "tokenURI",
      "outputs": [
        {
          "internalType": "string",
          "name": "",
          "type": "string"
        }
      ],
      "stateMutability": "view",
      "type": "function",
      "constant": true
    },
    {
      "inputs": [],
      "name": "totalSupply",
      "outputs": [
        {
          "internalType": "uint256",
          "name": "",
          "type": "uint256"
        }
      ],
      "stateMutability": "view",
      "type": "function",
      "constant": true
    },
    {
      "inputs": [
        {
          "internalType": "string",
          "name": "_name",
          "type": "string"
        },
        {
          "internalType": "address",
          "name": "_owner",
          "type": "address"
        },
        {
          "internalType": "int128",
          "name": "x",
          "type": "int128"
        }
      ],
      "name": "addBuilding",
      "outputs": [
        {
          "components": [
            {
              "internalType": "string",
              "name": "name",
              "type": "string"
            },
            {
              "internalType": "address",
              "name": "owner",
              "type": "address"
            },
            {
              "internalType": "int256",
              "name": "posX",
              "type": "int256"
            },
            {
              "internalType": "int256",
              "name": "posY",
              "type": "int256"
            },
            {
              "internalType": "int256",
              "name": "posZ",
              "type": "int256"
            },
            {
              "internalType": "uint256",
              "name": "sizeX",
              "type": "uint256"
            },
            {
              "internalType": "uint256",
              "name": "sizeY",
              "type": "uint256"
            },
            {
              "internalType": "uint256",
              "name": "sizeZ",
              "type": "uint256"
            },
            {
              "internalType": "bool",
              "name": "isForSale",
              "type": "bool"
            }
          ],
          "internalType": "struct Land.Building[9]",
          "name": "",
          "type": "tuple[9]"
        }
      ],
      "stateMutability": "nonpayable",
      "type": "function"
    },
    {
      "inputs": [
        {
          "internalType": "uint256",
          "name": "_id",
          "type": "uint256"
        }
      ],
      "name": "mint",
      "outputs": [],
      "stateMutability": "payable",
      "type": "function",
      "payable": true
    },
    {
      "inputs": [
        {
          "internalType": "address",
          "name": "from",
          "type": "address"
        },
        {
          "internalType": "address",
          "name": "to",
          "type": "address"
        },
        {
          "internalType": "uint256",
          "name": "tokenId",
          "type": "uint256"
        }
      ],
      "name": "transferFrom",
      "outputs": [],
      "stateMutability": "nonpayable",
      "type": "function"
    },
    {
      "inputs": [
        {
          "internalType": "address",
          "name": "from",
          "type": "address"
        },
        {
          "internalType": "address",
          "name": "to",
          "type": "address"
        },
        {
          "internalType": "uint256",
          "name": "tokenId",
          "type": "uint256"
        }
      ],
      "name": "safeTransferFrom",
      "outputs": [],
      "stateMutability": "nonpayable",
      "type": "function"
    },
    {
      "inputs": [
        {
          "internalType": "address",
          "name": "from",
          "type": "address"
        },
        {
          "internalType": "address",
          "name": "to",
          "type": "address"
        },
        {
          "internalType": "uint256",
          "name": "tokenId",
          "type": "uint256"
        },
        {
          "internalType": "bytes",
          "name": "_data",
          "type": "bytes"
        }
      ],
      "name": "safeTransferFrom",
      "outputs": [],
      "stateMutability": "nonpayable",
      "type": "function"
    },
    {
      "inputs": [],
      "name": "getBuildings",
      "outputs": [
        {
          "components": [
            {
              "internalType": "string",
              "name": "name",
              "type": "string"
            },
            {
              "internalType": "address",
              "name": "owner",
              "type": "address"
            },
            {
              "internalType": "int256",
              "name": "posX",
              "type": "int256"
            },
            {
              "internalType": "int256",
              "name": "posY",
              "type": "int256"
            },
            {
              "internalType": "int256",
              "name": "posZ",
              "type": "int256"
            },
            {
              "internalType": "uint256",
              "name": "sizeX",
              "type": "uint256"
            },
            {
              "internalType": "uint256",
              "name": "sizeY",
              "type": "uint256"
            },
            {
              "internalType": "uint256",
              "name": "sizeZ",
              "type": "uint256"
            },
            {
              "internalType": "bool",
              "name": "isForSale",
              "type": "bool"
            }
          ],
          "internalType": "struct Land.Building[9]",
          "name": "",
          "type": "tuple[9]"
        }
      ],
      "stateMutability": "view",
      "type": "function",
      "constant": true
    },
    {
      "inputs": [
        {
          "internalType": "uint256",
          "name": "_id",
          "type": "uint256"
        }
      ],
      "name": "getBuilding",
      "outputs": [
        {
          "components": [
            {
              "internalType": "string",
              "name": "name",
              "type": "string"
            },
            {
              "internalType": "address",
              "name": "owner",
              "type": "address"
            },
            {
              "internalType": "int256",
              "name": "posX",
              "type": "int256"
            },
            {
              "internalType": "int256",
              "name": "posY",
              "type": "int256"
            },
            {
              "internalType": "int256",
              "name": "posZ",
              "type": "int256"
            },
            {
              "internalType": "uint256",
              "name": "sizeX",
              "type": "uint256"
            },
            {
              "internalType": "uint256",
              "name": "sizeY",
              "type": "uint256"
            },
            {
              "internalType": "uint256",
              "name": "sizeZ",
              "type": "uint256"
            },
            {
              "internalType": "bool",
              "name": "isForSale",
              "type": "bool"
            }
          ],
          "internalType": "struct Land.Building",
          "name": "",
          "type": "tuple"
        }
      ],
      "stateMutability": "view",
      "type": "function",
      "constant": true
    }
  ],
  "bytecode": "0x6080604052670de0b6b3a76400006006556009600755600060085560086009553480156200002c57600080fd5b50604051620049c7380380620049c7833981810160405281019062000052919062000f63565b828281600090805190602001906200006c92919062000e2a565b5080600190805190602001906200008592919062000e2a565b505050806006819055506040518061012001604052806040518060400160405280600d81526020017f5265736964656e7469616c2041000000000000000000000000000000000000008152508152602001600073ffffffffffffffffffffffffffffffffffffffff1681526020017ffffffffffffffffffffffffffffffffffffffffffffffffffffffffffffffff18152602001600a815260200160008152602001600a815260200160058152602001600f815260200160011515815250600b6000600981106200017f577f4e487b7100000000000000000000000000000000000000000000000000000000600052603260045260246000fd5b600902016000820151816000019080519060200190620001a192919062000e2a565b5060208201518160010160006101000a81548173ffffffffffffffffffffffffffffffffffffffff021916908373ffffffffffffffffffffffffffffffffffffffff16021790555060408201518160020155606082015181600301556080820151816004015560a0820151816005015560c0820151816006015560e082015181600701556101008201518160080160006101000a81548160ff0219169083151502179055509050506040518061012001604052806040518060400160405280600d81526020017f5265736964656e7469616c2042000000000000000000000000000000000000008152508152602001600073ffffffffffffffffffffffffffffffffffffffff1681526020017ffffffffffffffffffffffffffffffffffffffffffffffffffffffffffffffff181526020016000815260200160008152602001600a8152602001600581526020016014815260200160011515815250600b60016009811062000339577f4e487b7100000000000000000000000000000000000000000000000000000000600052603260045260246000fd5b6009020160008201518160000190805190602001906200035b92919062000e2a565b5060208201518160010160006101000a81548173ffffffffffffffffffffffffffffffffffffffff021916908373ffffffffffffffffffffffffffffffffffffffff16021790555060408201518160020155606082015181600301556080820151816004015560a0820151816005015560c0820151816006015560e082015181600701556101008201518160080160006101000a81548160ff0219169083151502179055509050506040518061012001604052806040518060400160405280600d81526020017f53686f7070696e67204d616c6c000000000000000000000000000000000000008152508152602001600073ffffffffffffffffffffffffffffffffffffffff1681526020017ffffffffffffffffffffffffffffffffffffffffffffffffffffffffffffffff181526020017ffffffffffffffffffffffffffffffffffffffffffffffffffffffffffffffff6815260200160008152602001600a8152602001600581526020016019815260200160001515815250600b60026009811062000512577f4e487b7100000000000000000000000000000000000000000000000000000000600052603260045260246000fd5b6009020160008201518160000190805190602001906200053492919062000e2a565b5060208201518160010160006101000a81548173ffffffffffffffffffffffffffffffffffffffff021916908373ffffffffffffffffffffffffffffffffffffffff16021790555060408201518160020155606082015181600301556080820151816004015560a0820151816005015560c0820151816006015560e082015181600701556101008201518160080160006101000a81548160ff0219169083151502179055509050506040518061012001604052806040518060400160405280600a81526020017f4275696c64696e672043000000000000000000000000000000000000000000008152508152602001600073ffffffffffffffffffffffffffffffffffffffff168152602001600f8152602001600a815260200160008152602001600a8152602001600581526020016014815260200160011515815250600b600360098110620006ad577f4e487b7100000000000000000000000000000000000000000000000000000000600052603260045260246000fd5b600902016000820151816000019080519060200190620006cf92919062000e2a565b5060208201518160010160006101000a81548173ffffffffffffffffffffffffffffffffffffffff021916908373ffffffffffffffffffffffffffffffffffffffff16021790555060408201518160020155606082015181600301556080820151816004015560a0820151816005015560c0820151816006015560e082015181600701556101008201518160080160006101000a81548160ff0219169083151502179055509050506040518061012001604052806040518060400160405280600681526020017f43696e656d6100000000000000000000000000000000000000000000000000008152508152602001600073ffffffffffffffffffffffffffffffffffffffff168152602001600f81526020016000815260200160008152602001600a815260200160058152602001600f815260200160001515815250600b60046009811062000848577f4e487b7100000000000000000000000000000000000000000000000000000000600052603260045260246000fd5b6009020160008201518160000190805190602001906200086a92919062000e2a565b5060208201518160010160006101000a81548173ffffffffffffffffffffffffffffffffffffffff021916908373ffffffffffffffffffffffffffffffffffffffff16021790555060408201518160020155606082015181600301556080820151816004015560a0820151816005015560c0820151816006015560e082015181600701556101008201518160080160006101000a81548160ff0219169083151502179055509050506040518061012001604052806040518060400160405280600a81526020017f4275696c64696e672044000000000000000000000000000000000000000000008152508152602001600073ffffffffffffffffffffffffffffffffffffffff168152602001600f81526020017ffffffffffffffffffffffffffffffffffffffffffffffffffffffffffffffff6815260200160008152602001600a815260200160058152602001600f815260200160011515815250600b60056009811062000a02577f4e487b7100000000000000000000000000000000000000000000000000000000600052603260045260246000fd5b60090201600082015181600001908051906020019062000a2492919062000e2a565b5060208201518160010160006101000a81548173ffffffffffffffffffffffffffffffffffffffff021916908373ffffffffffffffffffffffffffffffffffffffff16021790555060408201518160020155606082015181600301556080820151816004015560a0820151816005015560c0820151816006015560e082015181600701556101008201518160080160006101000a81548160ff0219169083151502179055509050506040518061012001604052806040518060400160405280600481526020017f436c7562000000000000000000000000000000000000000000000000000000008152508152602001600073ffffffffffffffffffffffffffffffffffffffff168152602001600081526020016000815260200160008152602001600a8152602001600f81526020016014815260200160001515815250600b60066009811062000b9d577f4e487b7100000000000000000000000000000000000000000000000000000000600052603260045260246000fd5b60090201600082015181600001908051906020019062000bbf92919062000e2a565b5060208201518160010160006101000a81548173ffffffffffffffffffffffffffffffffffffffff021916908373ffffffffffffffffffffffffffffffffffffffff16021790555060408201518160020155606082015181600301556080820151816004015560a0820151816005015560c0820151816006015560e082015181600701556101008201518160080160006101000a81548160ff0219169083151502179055509050506040518061012001604052806040518060400160405280600d81526020017f5265736964656e7469616c2031000000000000000000000000000000000000008152508152602001600073ffffffffffffffffffffffffffffffffffffffff168152602001600081526020017ffffffffffffffffffffffffffffffffffffffffffffffffffffffffffffffff1815260200160008152602001600a815260200160058152602001600f815260200160011515815250600b60076009811062000d57577f4e487b7100000000000000000000000000000000000000000000000000000000600052603260045260246000fd5b60090201600082015181600001908051906020019062000d7992919062000e2a565b5060208201518160010160006101000a81548173ffffffffffffffffffffffffffffffffffffffff021916908373ffffffffffffffffffffffffffffffffffffffff16021790555060408201518160020155606082015181600301556080820151816004015560a0820151816005015560c0820151816006015560e082015181600701556101008201518160080160006101000a81548160ff0219169083151502179055509050505050506200117f565b82805462000e38906200108a565b90600052602060002090601f01602090048101928262000e5c576000855562000ea8565b82601f1062000e7757805160ff191683800117855562000ea8565b8280016001018555821562000ea8579182015b8281111562000ea757825182559160200191906001019062000e8a565b5b50905062000eb7919062000ebb565b5090565b5b8082111562000ed657600081600090555060010162000ebc565b5090565b600062000ef162000eeb8462001014565b62000feb565b90508281526020810184848401111562000f0a57600080fd5b62000f1784828562001054565b509392505050565b600082601f83011262000f3157600080fd5b815162000f4384826020860162000eda565b91505092915050565b60008151905062000f5d8162001165565b92915050565b60008060006060848603121562000f7957600080fd5b600084015167ffffffffffffffff81111562000f9457600080fd5b62000fa28682870162000f1f565b935050602084015167ffffffffffffffff81111562000fc057600080fd5b62000fce8682870162000f1f565b925050604062000fe18682870162000f4c565b9150509250925092565b600062000ff76200100a565b9050620010058282620010c0565b919050565b6000604051905090565b600067ffffffffffffffff82111562001032576200103162001125565b5b6200103d8262001154565b9050602081019050919050565b6000819050919050565b60005b838110156200107457808201518184015260208101905062001057565b8381111562001084576000848401525b50505050565b60006002820490506001821680620010a357607f821691505b60208210811415620010ba57620010b9620010f6565b5b50919050565b620010cb8262001154565b810181811067ffffffffffffffff82111715620010ed57620010ec62001125565b5b80604052505050565b7f4e487b7100000000000000000000000000000000000000000000000000000000600052602260045260246000fd5b7f4e487b7100000000000000000000000000000000000000000000000000000000600052604160045260246000fd5b6000601f19601f8301169050919050565b62001170816200104a565b81146200117c57600080fd5b50565b613838806200118f6000396000f3fe6080604052600436106101355760003560e01c806370a08231116100ab578063b88d4fde1161006f578063b88d4fde14610447578063c813427014610470578063c87b56dd146104ad578063d5abeb01146104ea578063d9cf6a2614610515578063e985e9c51461054057610135565b806370a082311461035d57806395d89b411461039a5780639dfd8b02146103c5578063a0712d6814610402578063a22cb4651461041e57610135565b806317d70f7c116100fd57806317d70f7c1461023357806318160ddd1461025e57806323b872dd1461028957806342842e0e146102b25780634c96a062146102db5780636352211e1461032057610135565b806301ffc9a71461013a57806306fdde0314610177578063081812fc146101a2578063095ea7b3146101df57806313faede614610208575b600080fd5b34801561014657600080fd5b50610161600480360381019061015c91906126cb565b61057d565b60405161016e9190612d88565b60405180910390f35b34801561018357600080fd5b5061018c61065f565b6040516101999190612da3565b60405180910390f35b3480156101ae57600080fd5b506101c960048036038101906101c49190612784565b6106f1565b6040516101d69190612cff565b60405180910390f35b3480156101eb57600080fd5b506102066004803603810190610201919061268f565b610737565b005b34801561021457600080fd5b5061021d61084f565b60405161022a919061301b565b60405180910390f35b34801561023f57600080fd5b50610248610855565b604051610255919061301b565b60405180910390f35b34801561026a57600080fd5b5061027361085b565b604051610280919061301b565b60405180910390f35b34801561029557600080fd5b506102b060048036038101906102ab9190612589565b610861565b005b3480156102be57600080fd5b506102d960048036038101906102d49190612589565b61094d565b005b3480156102e757600080fd5b5061030260048036038101906102fd9190612784565b61096d565b60405161031799989796959493929190612dc5565b60405180910390f35b34801561032c57600080fd5b5061034760048036038101906103429190612784565b610a76565b6040516103549190612cff565b60405180910390f35b34801561036957600080fd5b50610384600480360381019061037f9190612524565b610b28565b604051610391919061301b565b60405180910390f35b3480156103a657600080fd5b506103af610be0565b6040516103bc9190612da3565b60405180910390f35b3480156103d157600080fd5b506103ec60048036038101906103e79190612784565b610c72565b6040516103f99190612ff9565b60405180910390f35b61041c60048036038101906104179190612784565b610e16565b005b34801561042a57600080fd5b5061044560048036038101906104409190612653565b610f56565b005b34801561045357600080fd5b5061046e600480360381019061046991906125d8565b610f6c565b005b34801561047c57600080fd5b506104976004803603810190610492919061271d565b61105a565b6040516104a49190612d66565b60405180910390f35b3480156104b957600080fd5b506104d460048036038101906104cf9190612784565b61138b565b6040516104e19190612da3565b60405180910390f35b3480156104f657600080fd5b506104ff6113f3565b60405161050c919061301b565b60405180910390f35b34801561052157600080fd5b5061052a6113f9565b6040516105379190612d66565b60405180910390f35b34801561054c57600080fd5b506105676004803603810190610562919061254d565b61158b565b6040516105749190612d88565b60405180910390f35b60007f80ac58cd000000000000000000000000000000000000000000000000000000007bffffffffffffffffffffffffffffffffffffffffffffffffffffffff1916827bffffffffffffffffffffffffffffffffffffffffffffffffffffffff1916148061064857507f5b5e139f000000000000000000000000000000000000000000000000000000007bffffffffffffffffffffffffffffffffffffffffffffffffffffffff1916827bffffffffffffffffffffffffffffffffffffffffffffffffffffffff1916145b8061065857506106578261161f565b5b9050919050565b60606000805461066e906132c6565b80601f016020809104026020016040519081016040528092919081815260200182805461069a906132c6565b80156106e75780601f106106bc576101008083540402835291602001916106e7565b820191906000526020600020905b8154815290600101906020018083116106ca57829003601f168201915b5050505050905090565b60006106fc82611689565b6004600083815260200190815260200160002060009054906101000a900473ffffffffffffffffffffffffffffffffffffffff169050919050565b600061074282610a76565b90508073ffffffffffffffffffffffffffffffffffffffff168373ffffffffffffffffffffffffffffffffffffffff1614156107b3576040517f08c379a00000000000000000000000000000000000000000000000000000000081526004016107aa90612fb9565b60405180910390fd5b8073ffffffffffffffffffffffffffffffffffffffff166107d26116d4565b73ffffffffffffffffffffffffffffffffffffffff1614806108015750610800816107fb6116d4565b61158b565b5b610840576040517f08c379a000000000000000000000000000000000000000000000000000000000815260040161083790612f59565b60405180910390fd5b61084a83836116dc565b505050565b60065481565b60095481565b60085481565b61087261086c6116d4565b82611795565b6108b1576040517f08c379a00000000000000000000000000000000000000000000000000000000081526004016108a890612fd9565b60405180910390fd5b81600b6001836108c191906131c5565b600981106108f8577f4e487b7100000000000000000000000000000000000000000000000000000000600052603260045260246000fd5b6009020160010160006101000a81548173ffffffffffffffffffffffffffffffffffffffff021916908373ffffffffffffffffffffffffffffffffffffffff16021790555061094883838361182a565b505050565b61096883838360405180602001604052806000815250610f6c565b505050565b600b816009811061097d57600080fd5b60090201600091509050806000018054610996906132c6565b80601f01602080910402602001604051908101604052809291908181526020018280546109c2906132c6565b8015610a0f5780601f106109e457610100808354040283529160200191610a0f565b820191906000526020600020905b8154815290600101906020018083116109f257829003601f168201915b5050505050908060010160009054906101000a900473ffffffffffffffffffffffffffffffffffffffff16908060020154908060030154908060040154908060050154908060060154908060070154908060080160009054906101000a900460ff16905089565b6000806002600084815260200190815260200160002060009054906101000a900473ffffffffffffffffffffffffffffffffffffffff169050600073ffffffffffffffffffffffffffffffffffffffff168173ffffffffffffffffffffffffffffffffffffffff161415610b1f576040517f08c379a0000000000000000000000000000000000000000000000000000000008152600401610b1690612f99565b60405180910390fd5b80915050919050565b60008073ffffffffffffffffffffffffffffffffffffffff168273ffffffffffffffffffffffffffffffffffffffff161415610b99576040517f08c379a0000000000000000000000000000000000000000000000000000000008152600401610b9090612f39565b60405180910390fd5b600360008373ffffffffffffffffffffffffffffffffffffffff1673ffffffffffffffffffffffffffffffffffffffff168152602001908152602001600020549050919050565b606060018054610bef906132c6565b80601f0160208091040260200160405190810160405280929190818152602001828054610c1b906132c6565b8015610c685780601f10610c3d57610100808354040283529160200191610c68565b820191906000526020600020905b815481529060010190602001808311610c4b57829003601f168201915b5050505050905090565b610c7a6122a1565b600b600183610c8991906131c5565b60098110610cc0577f4e487b7100000000000000000000000000000000000000000000000000000000600052603260045260246000fd5b6009020160405180610120016040529081600082018054610ce0906132c6565b80601f0160208091040260200160405190810160405280929190818152602001828054610d0c906132c6565b8015610d595780601f10610d2e57610100808354040283529160200191610d59565b820191906000526020600020905b815481529060010190602001808311610d3c57829003601f168201915b505050505081526020016001820160009054906101000a900473ffffffffffffffffffffffffffffffffffffffff1673ffffffffffffffffffffffffffffffffffffffff1673ffffffffffffffffffffffffffffffffffffffff1681526020016002820154815260200160038201548152602001600482015481526020016005820154815260200160068201548152602001600782015481526020016008820160009054906101000a900460ff1615151515815250509050919050565b60006008549050600754811115610e62576040517f08c379a0000000000000000000000000000000000000000000000000000000008152600401610e5990612f19565b60405180910390fd5b600654341015610ea7576040517f08c379a0000000000000000000000000000000000000000000000000000000008152600401610e9e90612eb9565b60405180910390fd5b33600b600184610eb791906131c5565b60098110610eee577f4e487b7100000000000000000000000000000000000000000000000000000000600052603260045260246000fd5b6009020160010160006101000a81548173ffffffffffffffffffffffffffffffffffffffff021916908373ffffffffffffffffffffffffffffffffffffffff1602179055506001600854610f42919061313e565b600881905550610f523383611a91565b5050565b610f68610f616116d4565b8383611aaf565b5050565b610f7d610f776116d4565b83611795565b610fbc576040517f08c379a0000000000000000000000000000000000000000000000000000000008152600401610fb390612fd9565b60405180910390fd5b82600b600184610fcc91906131c5565b60098110611003577f4e487b7100000000000000000000000000000000000000000000000000000000600052603260045260246000fd5b6009020160010160006101000a81548173ffffffffffffffffffffffffffffffffffffffff021916908373ffffffffffffffffffffffffffffffffffffffff16021790555061105484848484611c1c565b50505050565b611062612305565b6040518061012001604052808581526020018473ffffffffffffffffffffffffffffffffffffffff1681526020016000815260200183600f0b815260200160008152602001600a815260200160058152602001600a815260200160001515815250600b600954600981106110ff577f4e487b7100000000000000000000000000000000000000000000000000000000600052603260045260246000fd5b60090201600082015181600001908051906020019061111f929190612333565b5060208201518160010160006101000a81548173ffffffffffffffffffffffffffffffffffffffff021916908373ffffffffffffffffffffffffffffffffffffffff16021790555060408201518160020155606082015181600301556080820151816004015560a0820151816005015560c0820151816006015560e082015181600701556101008201518160080160006101000a81548160ff02191690831515021790555090505060016009546111d6919061313e565b60098190555060016008546111eb919061313e565b6008819055506111fd83600954611a91565b600b600980602002604051908101604052809291906000905b8282101561137e5783826009020160405180610120016040529081600082018054611240906132c6565b80601f016020809104026020016040519081016040528092919081815260200182805461126c906132c6565b80156112b95780601f1061128e576101008083540402835291602001916112b9565b820191906000526020600020905b81548152906001019060200180831161129c57829003601f168201915b505050505081526020016001820160009054906101000a900473ffffffffffffffffffffffffffffffffffffffff1673ffffffffffffffffffffffffffffffffffffffff1673ffffffffffffffffffffffffffffffffffffffff1681526020016002820154815260200160038201548152602001600482015481526020016005820154815260200160068201548152602001600782015481526020016008820160009054906101000a900460ff16151515158152505081526020019060010190611216565b5050505090509392505050565b606061139682611689565b60006113a0611c78565b905060008151116113c057604051806020016040528060008152506113eb565b806113ca84611c8f565b6040516020016113db929190612cdb565b6040516020818303038152906040525b915050919050565b60075481565b611401612305565b600b600980602002604051908101604052809291906000905b828210156115825783826009020160405180610120016040529081600082018054611444906132c6565b80601f0160208091040260200160405190810160405280929190818152602001828054611470906132c6565b80156114bd5780601f10611492576101008083540402835291602001916114bd565b820191906000526020600020905b8154815290600101906020018083116114a057829003601f168201915b505050505081526020016001820160009054906101000a900473ffffffffffffffffffffffffffffffffffffffff1673ffffffffffffffffffffffffffffffffffffffff1673ffffffffffffffffffffffffffffffffffffffff1681526020016002820154815260200160038201548152602001600482015481526020016005820154815260200160068201548152602001600782015481526020016008820160009054906101000a900460ff1615151515815250508152602001906001019061141a565b50505050905090565b6000600560008473ffffffffffffffffffffffffffffffffffffffff1673ffffffffffffffffffffffffffffffffffffffff16815260200190815260200160002060008373ffffffffffffffffffffffffffffffffffffffff1673ffffffffffffffffffffffffffffffffffffffff16815260200190815260200160002060009054906101000a900460ff16905092915050565b60007f01ffc9a7000000000000000000000000000000000000000000000000000000007bffffffffffffffffffffffffffffffffffffffffffffffffffffffff1916827bffffffffffffffffffffffffffffffffffffffffffffffffffffffff1916149050919050565b61169281611e3c565b6116d1576040517f08c379a00000000000000000000000000000000000000000000000000000000081526004016116c890612f99565b60405180910390fd5b50565b600033905090565b816004600083815260200190815260200160002060006101000a81548173ffffffffffffffffffffffffffffffffffffffff021916908373ffffffffffffffffffffffffffffffffffffffff160217905550808273ffffffffffffffffffffffffffffffffffffffff1661174f83610a76565b73ffffffffffffffffffffffffffffffffffffffff167f8c5be1e5ebec7d5bd14f71427d1e84f3dd0314c0f7b2291e5b200ac8c7c3b92560405160405180910390a45050565b6000806117a183610a76565b90508073ffffffffffffffffffffffffffffffffffffffff168473ffffffffffffffffffffffffffffffffffffffff1614806117e357506117e2818561158b565b5b8061182157508373ffffffffffffffffffffffffffffffffffffffff16611809846106f1565b73ffffffffffffffffffffffffffffffffffffffff16145b91505092915050565b8273ffffffffffffffffffffffffffffffffffffffff1661184a82610a76565b73ffffffffffffffffffffffffffffffffffffffff16146118a0576040517f08c379a000000000000000000000000000000000000000000000000000000000815260040161189790612e79565b60405180910390fd5b600073ffffffffffffffffffffffffffffffffffffffff168273ffffffffffffffffffffffffffffffffffffffff161415611910576040517f08c379a000000000000000000000000000000000000000000000000000000000815260040161190790612ed9565b60405180910390fd5b61191b838383611ea8565b6119266000826116dc565b6001600360008573ffffffffffffffffffffffffffffffffffffffff1673ffffffffffffffffffffffffffffffffffffffff168152602001908152602001600020600082825461197691906131c5565b925050819055506001600360008473ffffffffffffffffffffffffffffffffffffffff1673ffffffffffffffffffffffffffffffffffffffff16815260200190815260200160002060008282546119cd919061313e565b92505081905550816002600083815260200190815260200160002060006101000a81548173ffffffffffffffffffffffffffffffffffffffff021916908373ffffffffffffffffffffffffffffffffffffffff160217905550808273ffffffffffffffffffffffffffffffffffffffff168473ffffffffffffffffffffffffffffffffffffffff167fddf252ad1be2c89b69c2b068fc378daa952ba7f163c4a11628f55a4df523b3ef60405160405180910390a4611a8c838383611ead565b505050565b611aab828260405180602001604052806000815250611eb2565b5050565b8173ffffffffffffffffffffffffffffffffffffffff168373ffffffffffffffffffffffffffffffffffffffff161415611b1e576040517f08c379a0000000000000000000000000000000000000000000000000000000008152600401611b1590612ef9565b60405180910390fd5b80600560008573ffffffffffffffffffffffffffffffffffffffff1673ffffffffffffffffffffffffffffffffffffffff16815260200190815260200160002060008473ffffffffffffffffffffffffffffffffffffffff1673ffffffffffffffffffffffffffffffffffffffff16815260200190815260200160002060006101000a81548160ff0219169083151502179055508173ffffffffffffffffffffffffffffffffffffffff168373ffffffffffffffffffffffffffffffffffffffff167f17307eab39ab6107e8899845ad3d59bd9653f200f220920489ca2b5937696c3183604051611c0f9190612d88565b60405180910390a3505050565b611c2784848461182a565b611c3384848484611f0d565b611c72576040517f08c379a0000000000000000000000000000000000000000000000000000000008152600401611c6990612e59565b60405180910390fd5b50505050565b606060405180602001604052806000815250905090565b60606000821415611cd7576040518060400160405280600181526020017f30000000000000000000000000000000000000000000000000000000000000008152509050611e37565b600082905060005b60008214611d09578080611cf290613329565b915050600a82611d029190613194565b9150611cdf565b60008167ffffffffffffffff811115611d4b577f4e487b7100000000000000000000000000000000000000000000000000000000600052604160045260246000fd5b6040519080825280601f01601f191660200182016040528015611d7d5781602001600182028036833780820191505090505b5090505b60008514611e3057600182611d9691906131c5565b9150600a85611da59190613372565b6030611db1919061313e565b60f81b818381518110611ded577f4e487b7100000000000000000000000000000000000000000000000000000000600052603260045260246000fd5b60200101907effffffffffffffffffffffffffffffffffffffffffffffffffffffffffffff1916908160001a905350600a85611e299190613194565b9450611d81565b8093505050505b919050565b60008073ffffffffffffffffffffffffffffffffffffffff166002600084815260200190815260200160002060009054906101000a900473ffffffffffffffffffffffffffffffffffffffff1673ffffffffffffffffffffffffffffffffffffffff1614159050919050565b505050565b505050565b611ebc83836120a4565b611ec96000848484611f0d565b611f08576040517f08c379a0000000000000000000000000000000000000000000000000000000008152600401611eff90612e59565b60405180910390fd5b505050565b6000611f2e8473ffffffffffffffffffffffffffffffffffffffff1661227e565b15612097578373ffffffffffffffffffffffffffffffffffffffff1663150b7a02611f576116d4565b8786866040518563ffffffff1660e01b8152600401611f799493929190612d1a565b602060405180830381600087803b158015611f9357600080fd5b505af1925050508015611fc457506040513d601f19601f82011682018060405250810190611fc191906126f4565b60015b612047573d8060008114611ff4576040519150601f19603f3d011682016040523d82523d6000602084013e611ff9565b606091505b5060008151141561203f576040517f08c379a000000000000000000000000000000000000000000000000000000000815260040161203690612e59565b60405180910390fd5b805181602001fd5b63150b7a0260e01b7bffffffffffffffffffffffffffffffffffffffffffffffffffffffff1916817bffffffffffffffffffffffffffffffffffffffffffffffffffffffff19161491505061209c565b600190505b949350505050565b600073ffffffffffffffffffffffffffffffffffffffff168273ffffffffffffffffffffffffffffffffffffffff161415612114576040517f08c379a000000000000000000000000000000000000000000000000000000000815260040161210b90612f79565b60405180910390fd5b61211d81611e3c565b1561215d576040517f08c379a000000000000000000000000000000000000000000000000000000000815260040161215490612e99565b60405180910390fd5b61216960008383611ea8565b6001600360008473ffffffffffffffffffffffffffffffffffffffff1673ffffffffffffffffffffffffffffffffffffffff16815260200190815260200160002060008282546121b9919061313e565b92505081905550816002600083815260200190815260200160002060006101000a81548173ffffffffffffffffffffffffffffffffffffffff021916908373ffffffffffffffffffffffffffffffffffffffff160217905550808273ffffffffffffffffffffffffffffffffffffffff16600073ffffffffffffffffffffffffffffffffffffffff167fddf252ad1be2c89b69c2b068fc378daa952ba7f163c4a11628f55a4df523b3ef60405160405180910390a461227a60008383611ead565b5050565b6000808273ffffffffffffffffffffffffffffffffffffffff163b119050919050565b60405180610120016040528060608152602001600073ffffffffffffffffffffffffffffffffffffffff1681526020016000815260200160008152602001600081526020016000815260200160008152602001600081526020016000151581525090565b6040518061012001604052806009905b61231d6122a1565b8152602001906001900390816123155790505090565b82805461233f906132c6565b90600052602060002090601f01602090048101928261236157600085556123a8565b82601f1061237a57805160ff19168380011785556123a8565b828001600101855582156123a8579182015b828111156123a757825182559160200191906001019061238c565b5b5090506123b591906123b9565b5090565b5b808211156123d25760008160009055506001016123ba565b5090565b60006123e96123e48461305b565b613036565b90508281526020810184848401111561240157600080fd5b61240c848285613284565b509392505050565b60006124276124228461308c565b613036565b90508281526020810184848401111561243f57600080fd5b61244a848285613284565b509392505050565b6000813590506124618161378f565b92915050565b600081359050612476816137a6565b92915050565b60008135905061248b816137bd565b92915050565b6000815190506124a0816137bd565b92915050565b600082601f8301126124b757600080fd5b81356124c78482602086016123d6565b91505092915050565b6000813590506124df816137d4565b92915050565b600082601f8301126124f657600080fd5b8135612506848260208601612414565b91505092915050565b60008135905061251e816137eb565b92915050565b60006020828403121561253657600080fd5b600061254484828501612452565b91505092915050565b6000806040838503121561256057600080fd5b600061256e85828601612452565b925050602061257f85828601612452565b9150509250929050565b60008060006060848603121561259e57600080fd5b60006125ac86828701612452565b93505060206125bd86828701612452565b92505060406125ce8682870161250f565b9150509250925092565b600080600080608085870312156125ee57600080fd5b60006125fc87828801612452565b945050602061260d87828801612452565b935050604061261e8782880161250f565b925050606085013567ffffffffffffffff81111561263b57600080fd5b612647878288016124a6565b91505092959194509250565b6000806040838503121561266657600080fd5b600061267485828601612452565b925050602061268585828601612467565b9150509250929050565b600080604083850312156126a257600080fd5b60006126b085828601612452565b92505060206126c18582860161250f565b9150509250929050565b6000602082840312156126dd57600080fd5b60006126eb8482850161247c565b91505092915050565b60006020828403121561270657600080fd5b600061271484828501612491565b91505092915050565b60008060006060848603121561273257600080fd5b600084013567ffffffffffffffff81111561274c57600080fd5b612758868287016124e5565b935050602061276986828701612452565b925050604061277a868287016124d0565b9150509250925092565b60006020828403121561279657600080fd5b60006127a48482850161250f565b91505092915050565b60006127b98383612b33565b905092915050565b6127ca816131f9565b82525050565b6127d9816131f9565b82525050565b60006127ea826130c7565b6127f481856130f5565b935083602082028501612806856130bd565b8060005b85811015612842578484038952815161282385826127ad565b945061282e836130e8565b925060208a0199505060018101905061280a565b50829750879550505050505092915050565b61285d8161320b565b82525050565b61286c8161320b565b82525050565b600061287d826130d2565b6128878185613100565b9350612897818560208601613293565b6128a08161345f565b840191505092915050565b6128b481613250565b82525050565b6128c381613250565b82525050565b60006128d4826130dd565b6128de8185613111565b93506128ee818560208601613293565b6128f78161345f565b840191505092915050565b600061290d826130dd565b6129178185613122565b9350612927818560208601613293565b6129308161345f565b840191505092915050565b6000612946826130dd565b6129508185613133565b9350612960818560208601613293565b80840191505092915050565b6000612979603283613122565b915061298482613470565b604082019050919050565b600061299c602583613122565b91506129a7826134bf565b604082019050919050565b60006129bf601c83613122565b91506129ca8261350e565b602082019050919050565b60006129e2601183613122565b91506129ed82613537565b602082019050919050565b6000612a05602483613122565b9150612a1082613560565b604082019050919050565b6000612a28601983613122565b9150612a33826135af565b602082019050919050565b6000612a4b600b83613122565b9150612a56826135d8565b602082019050919050565b6000612a6e602983613122565b9150612a7982613601565b604082019050919050565b6000612a91603e83613122565b9150612a9c82613650565b604082019050919050565b6000612ab4602083613122565b9150612abf8261369f565b602082019050919050565b6000612ad7601883613122565b9150612ae2826136c8565b602082019050919050565b6000612afa602183613122565b9150612b05826136f1565b604082019050919050565b6000612b1d603183613122565b9150612b2882613740565b604082019050919050565b6000610120830160008301518482036000860152612b5182826128c9565b9150506020830151612b6660208601826127c1565b506040830151612b7960408601826128ab565b506060830151612b8c60608601826128ab565b506080830151612b9f60808601826128ab565b5060a0830151612bb260a0860182612cbd565b5060c0830151612bc560c0860182612cbd565b5060e0830151612bd860e0860182612cbd565b50610100830151612bed610100860182612854565b508091505092915050565b6000610120830160008301518482036000860152612c1682826128c9565b9150506020830151612c2b60208601826127c1565b506040830151612c3e60408601826128ab565b506060830151612c5160608601826128ab565b506080830151612c6460808601826128ab565b5060a0830151612c7760a0860182612cbd565b5060c0830151612c8a60c0860182612cbd565b5060e0830151612c9d60e0860182612cbd565b50610100830151612cb2610100860182612854565b508091505092915050565b612cc68161327a565b82525050565b612cd58161327a565b82525050565b6000612ce7828561293b565b9150612cf3828461293b565b91508190509392505050565b6000602082019050612d1460008301846127d0565b92915050565b6000608082019050612d2f60008301876127d0565b612d3c60208301866127d0565b612d496040830185612ccc565b8181036060830152612d5b8184612872565b905095945050505050565b60006020820190508181036000830152612d8081846127df565b905092915050565b6000602082019050612d9d6000830184612863565b92915050565b60006020820190508181036000830152612dbd8184612902565b905092915050565b6000610120820190508181036000830152612de0818c612902565b9050612def602083018b6127d0565b612dfc604083018a6128ba565b612e0960608301896128ba565b612e1660808301886128ba565b612e2360a0830187612ccc565b612e3060c0830186612ccc565b612e3d60e0830185612ccc565b612e4b610100830184612863565b9a9950505050505050505050565b60006020820190508181036000830152612e728161296c565b9050919050565b60006020820190508181036000830152612e928161298f565b9050919050565b60006020820190508181036000830152612eb2816129b2565b9050919050565b60006020820190508181036000830152612ed2816129d5565b9050919050565b60006020820190508181036000830152612ef2816129f8565b9050919050565b60006020820190508181036000830152612f1281612a1b565b9050919050565b60006020820190508181036000830152612f3281612a3e565b9050919050565b60006020820190508181036000830152612f5281612a61565b9050919050565b60006020820190508181036000830152612f7281612a84565b9050919050565b60006020820190508181036000830152612f9281612aa7565b9050919050565b60006020820190508181036000830152612fb281612aca565b9050919050565b60006020820190508181036000830152612fd281612aed565b9050919050565b60006020820190508181036000830152612ff281612b10565b9050919050565b600060208201905081810360008301526130138184612bf8565b905092915050565b60006020820190506130306000830184612ccc565b92915050565b6000613040613051565b905061304c82826132f8565b919050565b6000604051905090565b600067ffffffffffffffff82111561307657613075613430565b5b61307f8261345f565b9050602081019050919050565b600067ffffffffffffffff8211156130a7576130a6613430565b5b6130b08261345f565b9050602081019050919050565b6000819050919050565b600060099050919050565b600081519050919050565b600081519050919050565b6000602082019050919050565b600081905092915050565b600082825260208201905092915050565b600082825260208201905092915050565b600082825260208201905092915050565b600081905092915050565b60006131498261327a565b91506131548361327a565b9250827fffffffffffffffffffffffffffffffffffffffffffffffffffffffffffffffff03821115613189576131886133a3565b5b828201905092915050565b600061319f8261327a565b91506131aa8361327a565b9250826131ba576131b96133d2565b5b828204905092915050565b60006131d08261327a565b91506131db8361327a565b9250828210156131ee576131ed6133a3565b5b828203905092915050565b60006132048261325a565b9050919050565b60008115159050919050565b60007fffffffff0000000000000000000000000000000000000000000000000000000082169050919050565b600081600f0b9050919050565b6000819050919050565b600073ffffffffffffffffffffffffffffffffffffffff82169050919050565b6000819050919050565b82818337600083830152505050565b60005b838110156132b1578082015181840152602081019050613296565b838111156132c0576000848401525b50505050565b600060028204905060018216806132de57607f821691505b602082108114156132f2576132f1613401565b5b50919050565b6133018261345f565b810181811067ffffffffffffffff821117156133205761331f613430565b5b80604052505050565b60006133348261327a565b91507fffffffffffffffffffffffffffffffffffffffffffffffffffffffffffffffff821415613367576133666133a3565b5b600182019050919050565b600061337d8261327a565b91506133888361327a565b925082613398576133976133d2565b5b828206905092915050565b7f4e487b7100000000000000000000000000000000000000000000000000000000600052601160045260246000fd5b7f4e487b7100000000000000000000000000000000000000000000000000000000600052601260045260246000fd5b7f4e487b7100000000000000000000000000000000000000000000000000000000600052602260045260246000fd5b7f4e487b7100000000000000000000000000000000000000000000000000000000600052604160045260246000fd5b6000601f19601f8301169050919050565b7f4552433732313a207472616e7366657220746f206e6f6e20455243373231526560008201527f63656976657220696d706c656d656e7465720000000000000000000000000000602082015250565b7f4552433732313a207472616e736665722066726f6d20696e636f72726563742060008201527f6f776e6572000000000000000000000000000000000000000000000000000000602082015250565b7f4552433732313a20746f6b656e20616c7265616479206d696e74656400000000600082015250565b7f696e73757366696369656e7420636f7374000000000000000000000000000000600082015250565b7f4552433732313a207472616e7366657220746f20746865207a65726f2061646460008201527f7265737300000000000000000000000000000000000000000000000000000000602082015250565b7f4552433732313a20617070726f766520746f2063616c6c657200000000000000600082015250565b7f537570706c7920656e6473000000000000000000000000000000000000000000600082015250565b7f4552433732313a2061646472657373207a65726f206973206e6f74206120766160008201527f6c6964206f776e65720000000000000000000000000000000000000000000000602082015250565b7f4552433732313a20617070726f76652063616c6c6572206973206e6f7420746f60008201527f6b656e206f776e6572206e6f7220617070726f76656420666f7220616c6c0000602082015250565b7f4552433732313a206d696e7420746f20746865207a65726f2061646472657373600082015250565b7f4552433732313a20696e76616c696420746f6b656e2049440000000000000000600082015250565b7f4552433732313a20617070726f76616c20746f2063757272656e74206f776e6560008201527f7200000000000000000000000000000000000000000000000000000000000000602082015250565b7f4552433732313a207472616e736665722063616c6c6572206973206e6f74206f60008201527f776e6572206e6f7220617070726f766564000000000000000000000000000000602082015250565b613798816131f9565b81146137a357600080fd5b50565b6137af8161320b565b81146137ba57600080fd5b50565b6137c681613217565b81146137d157600080fd5b50565b6137dd81613243565b81146137e857600080fd5b50565b6137f48161327a565b81146137ff57600080fd5b5056fea2646970667358221220026a7075d0100ac6c756b6204cfded5922b98334a54e989519b8564f6e6f6b4564736f6c63430008020033",
  "immutableReferences": {},
  "source": " \n //SPDX=License-Identifier: MIT\n pragma solidity ^0.8.0;\n import \"@openzeppelin/contracts/token/ERC721/ERC721.sol\";\n contract Land is ERC721 {\n    uint256 public cost = 1 ether;\n    uint256 public maxSupply = 9;\n    uint256 public totalSupply = 0;\n    uint256 public tokenId=8;\n  struct Building {\n    string name;\n    address owner;\n    int256 posX;\n    int256 posY;\n    int256 posZ;\n    uint256 sizeX;\n    uint256 sizeY;\n    uint256 sizeZ;\n    bool isForSale;\n }\n // struct registrationInfo {\n //     address ownerAddrs;\n // land land;\n // }\n struct userInfo {\n    address addrs;\n    string name;\n }\nstring aadhar;\n  //  modifier onlyOwner {\n //     require(msg.sender == owner);\n // _;\n // }\n // modifier onlyUsers {\n //     require(users[msg.sender].addrs != address(0));\n // _;\n // }\nBuilding[9] public buildings;\nconstructor(string memory _name, string memory _symbol,uint256 _cost) ERC721(_name,_symbol){\n    cost = _cost;\n    // owner = _owner;\n    \n \n    buildings[0]=Building(\"Residential A\", address(0x0), -15,10, 0, 10, 5, 15,true);\n    buildings[1]=Building(\"Residential B\", address(0x0), -15,0, 0, 10, 5, 20,true);\n    buildings[2]=Building(\"Shopping Mall\", address(0x0), -15,-10, 0, 10, 5, 25,false);\n    buildings[3]=Building(\"Building C\", address(0x0), 15, 10,0, 10, 5, 20,true);\n       \n    buildings[4]=Building(\"Cinema\", address(0x0), 15, 0, 0, 10, 5, 15,false);\n    buildings[5]=Building(\"Building D\", address(0x0), 15, -10,0, 10, 5, 15,true);\n    buildings[6]=Building(\"Club\", address(0x0), 0, 0, 0, 10,15, 20,false);\n    buildings[7]=Building(\"Residential 1\", address(0x0), 0,-15, 0, 10, 5, 15,true);\n        \n        // buildings.push(\n    //     Building(\"University\", address(0x0), -10, 15, 0,\n    // );\n    // buildings.push(\n    //     Building(\"Shopping Plaza 1\", address(0x0), 10, 0,0, 5, 25, 5,false)\n    // );\n  }\n mapping(address => userInfo) users;\n // mapping(uint256 => registrationInfo) registrationsList;\n function addBuilding(string memory _name,address _owner,int128 x)public returns (Building[9] memory){\n    buildings[tokenId]=Building(_name, _owner, 0, x, 0, 10, 5,10,false);\n    tokenId=tokenId+1;\n    //buildings[tokenId - 1].owner = _owner;\n    totalSupply = totalSupply + 1;\n    _safeMint(_owner, tokenId);\n    //emit Transfer(address(0), _owner, tokenId);\n    return buildings;\n  }\n function mint(uint256 _id) public payable {\n   uint256 supply = totalSupply;\n require(supply <= maxSupply,\"Supply ends\");\n  //require(buildings[_id - 1].owner ==address(0x0),\"Address not 0x0\");\n\n \nrequire(msg.value >= cost,\"insusficient cost\");\n    // NOTE: tokenID always starts from 1, but our arraystarts from 0\n    buildings[_id - 1].owner = msg.sender;\n    totalSupply = totalSupply + 1;\n    _safeMint(msg.sender, _id);\n  }\n function transferFrom(\n    address from,\n    address to,\n        uint256 tokenId\n    ) public override {\n    require(\n    _isApprovedOrOwner(_msgSender(), tokenId),\n    \"ERC721: transfer caller is not owner nor approved\"\n    );\n    // Update Building ownership\n        buildings[tokenId - 1].owner = to;\n        _transfer(from, to, tokenId);\n    }\n    function safeTransferFrom(\n        address from,\n        address to,\n        uint256 tokenId,\n        bytes memory _data\n    ) public override {\n        require(\n        _isApprovedOrOwner(_msgSender(), tokenId),\n        \"ERC721: transfer caller is not owner nor approved\"\n );\n // Update Building ownership\n buildings[tokenId - 1].owner = to;\n _safeTransfer(from, to, tokenId, _data);\n }\n // Public View Functions\n function getBuildings() public view returns (Building[9]\n   memory) {\n  return buildings;\n }\n function getBuilding(uint256 _id) public view returns\n   (Building memory) {\n  return buildings[_id - 1];\n\n \n}\n}\n// function setForSale(uint256 buildingId) public returns (Building[] memory){\n//     buildings[buildingId - 1].isForSale = true;\n//     return buildings[buildingId - 1];\n//  }\n",
  "sourcePath": "/Users/kuldipwaghmare/Desktop/Web3.0/virtual-land-metaverse/src/contracts/Land.sol",
  "compiler": {
    "name": "solc",
    "version": "0.8.2+commit.661d1103.Emscripten.clang"
  },
  "schemaVersion": "3.4.10",
  "updatedAt": "2022-09-28T14:47:01.509Z",
  "networkType": "ethereum",
  "devdoc": {
    "kind": "dev",
    "methods": {
      "approve(address,uint256)": {
        "details": "See {IERC721-approve}."
      },
      "balanceOf(address)": {
        "details": "See {IERC721-balanceOf}."
      },
      "getApproved(uint256)": {
        "details": "See {IERC721-getApproved}."
      },
      "isApprovedForAll(address,address)": {
        "details": "See {IERC721-isApprovedForAll}."
      },
      "name()": {
        "details": "See {IERC721Metadata-name}."
      },
      "ownerOf(uint256)": {
        "details": "See {IERC721-ownerOf}."
      },
      "safeTransferFrom(address,address,uint256)": {
        "details": "See {IERC721-safeTransferFrom}."
      },
      "setApprovalForAll(address,bool)": {
        "details": "See {IERC721-setApprovalForAll}."
      },
      "supportsInterface(bytes4)": {
        "details": "See {IERC165-supportsInterface}."
      },
      "symbol()": {
        "details": "See {IERC721Metadata-symbol}."
      },
      "tokenURI(uint256)": {
        "details": "See {IERC721Metadata-tokenURI}."
      },
      "transferFrom(address,address,uint256)": {
        "details": "See {IERC721-transferFrom}."
      }
    },
    "version": 1
  },
  "userdoc": {
    "kind": "user",
    "methods": {},
    "version": 1
  }
}